:100000000A128A11992900308A000408840A82079A
:100010000034203456346F346C34743461346734B3
:0600200065343A3400349F
:10030400831203131F100800831203131F14080021
:1003140001300A128A11A1210A128A110800F3007D
:1003240073080A128A11AC210A128A110800CA0140
:10033400CB01CC01CD0183010A128A11D02EF20027
:1003440083120313061172080A128A11F8230A127F
:100354008A110800F20083120313061572080A12A8
:100364008A11F8230A128A110800831603131F172F
:10037400831203139F171F13831603139F151F154F
:100384009F141F109F17831203131F100800F400FB
:10039400F408031DCE29CF29D729730880380A12FF
:1003A4008A11A1210A128A11DF297308C0380A129E
:1003B4008A11A1210A128A11DF2908000A128A115E
:1003C400B7210A128A110730F6007D30F500F50BCB
:1003D400E929F60BE9290A128A1171230A128A11F2
:1003E4000A128A118A210A128A110800831203133D
:1003F4002A08F0002B08F100F2018E30FC007C0882
:10040400F300F4010A128A11F6220A128A11700802
:1004140083120313AA007108AB007208AC00122AFD
:100424000800F400262A740884000A128A110320A2
:100434000A128A110A128A11AC210A128A11013095
:10044400F3007308F407262A740884000A128A1138
:1004540003200A128A110038031D312A322A152A70
:10046400332A0800F401F501831203139F121F12AB
:100474009F11A630F200F20B3D2A000083120313F1
:100484001F15442A1F19472A482A442A492A1E08A4
:10049400F200F3017208F300F2017208F400730829
:1004A400F500831603131E087407F4007508031877
:1004B400750AF5007508F101F1077408F001F007F9
:1004C400632A0800710870040319692A6A2AA02A99
:1004D400F5010314F50D7A2A01300310F00DF10D26
:1004E400FF3E031D6F2A0130F4007408F5077A2AD1
:1004F400F11F7D2A7E2A6E2A802A802A71087302BF
:10050400031D862A70087202031C892A8A2A912AEA
:100514007008F2027108031CF303F302912A0130FC
:100524000310F10CF00CFF3E031D922A0130F5027A
:10053400031D9D2A9E2A802AA02AA02A7308F1015D
:10054400F1077208F001F007A72A0800F501F60187
:10055400710870040319AF2AB02AEE2AF7010314B4
:10056400F70DC02A01300310F00DF10DFF3E031DFD
:10057400B52A0130F4007408F707C02AF11FC32A12
:10058400C42AB42AC62AC62A01300310F50DF60D72
:10059400FF3E031DC72A71087302031DD32A700886
:1005A4007202031CD62AD72ADF2A7008F2027108C5
:1005B400031CF303F3027514DF2A01300310F10C5A
:1005C400F00CFF3E031DE02A0130F702031DEB2A65
:1005D400EC2AC62AEE2AEE2A7608F101F1077508FC
:1005E400F001F007F52A08007308031DFA2A022B0C
:1005F400720871047004031D002B012B182B022BAD
:100604000030F0000030F1000030F200702B702B4D
:10061400182B0130F5007508F30701300310F20CB4
:10062400F10CF00CFF3E031D102B182BFE3072054D
:10063400031D1D2B1E2B0B2B362B362B0130F500E7
:100644007508F3070130F007003003180130F10793
:10065400003003180130F20701300310F20CF10CE2
:10066400F00CFF3E031D2F2BFF307205031D3B2BA7
:100674003C2B202B492B492B0130F3020130031072
:10068400F00DF10DF20DFF3E031D412B492BF11F1F
:100694004C2B4D2B3E2B7318502B512B572BFF30CB
:1006A400F0057F30F105FF30F2050310F30C7308F9
:1006B400F500F601F70110300310F50DF60DF70DF6
:1006C400FF3E031D5E2B7508F0047608F1047708DD
:1006D400F2047408031D6F2B702BF21708001430FA
:1006E400F4007930F300F30B752BF40B752B7A2B94
:1006F4008312031386150D30F400FB30F300F30B63
:10070400812BF40B812B862B831203138611061184
:1007140086130613861606168615F930F3000000B4
:10072400F30B912B952B0000831203138611861370
:100734000613861606168615F930F3000000F30B2F
:10074400A02BA42B0000831203138611F930F300AD
:100754000000F30BAA2BAE2B0000831203138613A5
:100764000613861606168615F930F3000000F30BFF
:10077400B82BBC2B0000831203138611F930F3004D
:100784000000F30BC22BC62B000083120313861345
:100794000613861606128615F930F3000000F30BD3
:1007A400D02BD42B0000831203138611F930F300ED
:1007B4000000F30BDA2BDE2B000028300A128A111A
:1007C400A1210A128A110C300A128A11A1210A12DB
:1007D4008A1101300A128A11A1210A128A110630E3
:1007E4000A128A11A1210A128A110800F100710863
:1007F400F00007300310F00CFF3E031DFC2B7018B3
:10080400042C082C8312031386170B2C8312031356
:1008140086137108F00006300310F00CFF3E031D30
:100824000E2C7018162C1A2C8312031306171D2C69
:100834008312031306137108F00005300310F00C43
:10084400FF3E031D202C7018282C2C2C831203131C
:1008540086162F2C8312031386127108F0000430BD
:100864000310F00CFF3E031D322C70183A2C3E2C62
:10087400831203130616412C8312031306128615E2
:10088400F930F0000000F00B442C482C00008312D7
:10089400031386117108F00003300310F00CFF3EBF
:1008A400031D4F2C7018572C5B2C831203138617CF
:1008B4005E2C8312031386137108F00002300310B8
:1008C400F00CFF3E031D612C7018692C6D2C8312F3
:1008D40003130617702C8312031306137108F00018
:1008E40001300310F00CFF3E031D732C70187B2C99
:1008F4007F2C831203138616822C83120313861211
:100904007118852C892C8312031306168C2C8312E0
:10091400031306128615F930F0000000F00B8F2C3B
:10092400932C000083120313861108000330710214
:10093400E83003197002031CA02CA12CAE2C073044
:100944007102D030031970020318A92CAA2CAE2C02
:100954008312031307143B2D07307102D03003199F
:100964007002031CB62CB72CC52C0B307102B830A6
:10097400031970020318BF2CC02CC52C8312031357
:10098400071487143B2D0B307102B8300319700221
:10099400031CCD2CCE2CDD2C0F307102A03003199A
:1009A40070020318D62CD72CDD2C831203130714E2
:1009B400871407153B2D0F307102A0300319700204
:1009C400031CE52CE62CF62C12307102C0300319FE
:1009D40070020318EE2CEF2CF62C83120313071469
:1009E4008714071587153B2D12307102C030031987
:1009F4007002031CFE2CFF2C302D831203130130D4
:100A040087062E30F3007330F200F20B072DF30B40
:100A1400072D83120313023087062E30F300733040
:100A2400F200F20B132DF30B132D83120313043076
:100A340087062E30F3007330F200F20B1F2DF30BF8
:100A44001F2D83120313083087062E30F3007330F2
:100A5400F200F20B2B2DF30B2B2D3B2D83120313E2
:100A640007108710071187113B2D3B2D3B2D3B2D84
:100A74003B2D0800780883120313A0007908A10015
:100A84007A08A2000310210D220DA3002308A90057
:100A9400A908031D4E2D4F2D592D0030FB000030A9
:100AA400FA000030F9000030F800E12DE12D78085B
:100AB400A0007908A1007A08A20017300310A20C44
:100AC400A10CA00CFF3E031D602D2008A3002308E9
:100AD400A400F917FF30F805FF30F9050030FA05D6
:100AE4007808A5007908A6007A08A700A8018E3026
:100AF400A902A91F7E2D7F2DA42D2908803A8F3E9F
:100B04000318852D862D912D0030FB000030FA004E
:100B14000030F9000030F800E12DE12D912D013075
:100B24000310A80CA70CA60CA50CFF3E031D922DC8
:100B34000130A0002008A907031DA12DA22D912D8D
:100B4400C82DC82D18302902031CA92DAA2DC12D8A
:100B54000030FB000030FA000030F9000030F800EB
:100B6400E12DE12DC12D0130A0000310A50DA60D2E
:100B7400A70DA80DA00BB72D0130A902C12DA908FE
:100B8400031DC52DC62DB52DC82DC82D2408031D44
:100B9400CC2DD82DA509A609A709A809A50A0319CA
:100BA400A60A0319A70A0319A80AD82D2808FB00C6
:100BB4002708FA002608F9002508F800E12D0800A6
:100BC400831203132D08B3002E08B4002F08B500B8
:100BD4000310340D350DB6003608B700B708031DF1
:100BE400F42DF52DFD2D0030AD000030AE000030A9
:100BF400AF00CF2ECF2E3008B3003108B400320836
:100C0400B5000310340D350DB6003608BC00BC0821
:100C1400031D0D2E0E2E162E0030AD000030AE003A
:100C24000030AF00CF2ECF2E3C087B3EB3003308FC
:100C3400B7072D08B3002E08B4002F08B5001030F4
:100C44000310B50CB40CB30CFF3E031D222E330865
:100C5400B6003608BC003008B3003108B4003208CE
:100C6400B50010300310B50CB40CB30CFF3E031DDB
:100C7400342E3308B6003608BC068030B30033087F
:100C8400BC05AE17B117FF30B005FF30B105003019
:100C9400B2050030B8000030B9000030BA000730A7
:100CA400B3003308BB00562E2D1C592E5A2E6B2E22
:100CB4003008B807310803110318310A0319632EE9
:100CC400B907320803110318320A03196A2EBA0746
:100CD4006B2E01300310AF0CAE0CAD0CFF3E031DA8
:100CE4006C2E01300310B00DB10DB20DFF3E031D8B
:100CF400742E0130BB02031D802E812E562E822EAF
:100D04000930B3003308BB00872E2D1C8A2E8B2E8E
:100D14009C2E3008B807310803110318310A03194F
:100D2400942EB907320803110318320A03199B2EB3
:100D3400BA079C2E01300310AF0CAE0CAD0CFF3E75
:100D4400031D9D2E01300310BA0CB90CB80CFF3EE4
:100D5400031DA52E0130BB02031DB12EB22E872E1A
:100D6400B32E3808F0003908F1003A08F2003708C9
:100D7400B3003308F3003C08B4003408F4000A124A
:100D84008A11F6220A128A11700883120313AD0025
:100D94007108AE007208AF00CF2E0800831603134B
:100DA40005140130860087010A128A11E0210A1213
:100DB4008A1101300A128A1113220A128A110A12A4
:100DC4008A1186210A128A11A630FD00FD0BE82E35
:100DD4000000EC2E83120313C801C901C201C30130
:100DE400003043020A3003194202031CFA2EFB2E80
:100DF400FD2E1C2F1C2F0A128A1134220A128A116A
:100E04008312031348087007C80049080318490AE5
:100E14007107C9000130C2070318C30A0030C307B1
:100E2400003043020A3003194202031C1A2F1B2FFD
:100E3400FD2E1C2F0A30F0000030F1004908F301A8
:100E4400F3074808F201F2070A128A11A8220A12CB
:100E54008A11710883120313C901C9077008C801F4
:100E6400C8074908AB01AB074808AA01AA070A1238
:100E74008A11F8210A128A11831203132A08B00076
:100E84002B08B1002C08B2004030AD009C30AE00FD
:100E94004030AF000A128A11E2250A128A11831225
:100EA40003132D08F8002E08F9002F08FA000A127F
:100EB4008A113C250A128A11790883120313C50189
:100EC400C5077808C401C4074508F101F1074408BF
:100ED400F001F0070A128A1198240A128A11831267
:100EE40003134D08C0004C08BF004B08BE004A085D
:100EF400BD00C101C601C701003047020430031917
:100F04004602031C862F872F892FCE2FCE2F0A301F
:100F1400F0000030F1004508F301F3074408F20142
:100F2400F2070A128A1164220A128A117008FD005B
:100F34007D0883120313C1000A30F0000030F10071
:100F44004508F301F3074408F201F2070A128A1173
:100F5400A8220A128A11710883120313C501C50756
:100F64007008C401C4074108303EFD0046083D3EF8
:100F740084007D08831380000130C6070318C70A64
:100F84000030C70700304702043003194602031C2F
:100F9400CC2FCD2F892FCE2F4030FD007D08F300BC
:100FA40000300A128A11C9210A128A11831203130A
:100FB40040080A128A1191210A128A112E300A124B
:100FC4008A1191210A128A11831203133F080A120B
:100FD4008A1191210A128A11831203133E080A12FC
:100FE4008A1191210A128A11EC2EEC2E0A128A110E
:0C0FF40082210A128A110A128A110028B8
:02400E00323F3F
:00000001FF
